:100000009DC00000C3C00000C1C00000BFC0000010
:10001000BDC00000BBC00000B9C00000B7C00000F8
:10002000B5C00000B3C00000B1C00000AFC0000008
:10003000ADC000000C94EE28A9C00000A7C00000CD
:100040000C94702EA3C000000C9427310C945931ED
:100050009DC000009BC0000099C0000097C0000038
:1000600095C0000093C0000007634236B79BD8A735
:100070001A39685618AEBAAB558C1D3CB7CC5763CD
:10008000BD6DEDFD753EF6177231BF000000803F7B
:1000900008000000BE922449123EABAAAA2ABECD97
:1000A000CCCC4C3E00000080BEABAAAAAA3E000009
:1000B0000000BF000000803F000000000008417801
:1000C000D3BB4387D1133D190E3CC3BD4282AD2B38
:1000D0003E68EC8276BED98FE1A93E4C80EFFFBE30
:1000E00001C4FF7F3F000000000000000008000284
:1000F00001000003040700000000000000000102EE
:1001000004081020408001020408102001020408A5
:100110001020040404040404040402020202020283
:1001200003030303030300000000250028002B0045
:1001300000000000240027002A007E3111241FBE89
:10014000CFEFD8E0DEBFCDBF11E0A0E0B1E0E0E846
:10015000F4E602C005900D92AE3DB107D9F726E056
:10016000AEEDB1E001C01D92A038B207E1F710E09A
:10017000CEE9D0E004C02197FE010E940F32CD39B4
:10018000D107C9F70E94D6290C943E3239CFCF93BC
:10019000DF93882349F0EB0181500E94502F99830F
:1001A0008883DF91CF910895FB0111821082F9CFEE
:1001B0000F931F938B019C0183E03695279517952C
:1001C00007958A95D1F702521E4F462F477021E0BE
:1001D00030E0F90102C0EE0FFF1F4A95E2F7AF01D0
:1001E000F80120812423CB010196211102C090E067
:1001F00080E01F910F9108950F931F938B019C0135
:1002000083E036952795179507958A95D1F76770FE
:1002100081E090E001C0880F6A95EAF7F801E252A8
:10022000FE4F2081452B31F48095822380831F91DE
:100230000F910895822BFACFCF92DF92EF92FF9227
:10024000CF93DF936B017C0160E08EE0C816D10490
:10025000E104F10490F48EE08C0D0E94942FE601ED
:100260002196AE01C701B601C7DFCE01DF91CF9164
:10027000FF90EF90DF90CF9008958C2DEECF8823E4
:1002800041F08150682F70E090E080E050E040E065
:10029000B3CF0895611102C00C94942F6130E1F343
:1002A00062E0FACF662319F061E00C94D02F60E091
:1002B000FCCF90E080E008950F931F93009709F41E
:1002C0008AC06115710509F486C00091160110916C
:1002D000170120911801309119010E3F1F4F2F4F28
:1002E0003F4F09F06AC0DB014D915D916D917C91AA
:1002F00040931601509317016093180170931901F0
:1003000040911601509117016091180170911901E7
:10031000DC011296ED91FC9180819181A281B381E3
:1003200080933F0390934003A0934103B093420313
:1003300084819581A681B78180933B0390933C0390
:10034000A0933D03B0933E0380859185A285B3853C
:100350008093370390933803A0933903B0933A0303
:1003600084859585A685B785809333039093340360
:10037000A0933503B093360310922F0310923003ED
:1003800010923103109232030E94B40C89ED9CE06C
:100390009093E8018093E7019093EA018093E9014B
:1003A0000E94930B009731F421E030E03093440336
:1003B000209343031F910F9108950091160110910E
:1003C00017012091180130911901FB01008311835D
:1003D0002283338395CF8FEF9FEFECCF8F929F9245
:1003E000AF92BF92CF92DF92EF92FF921F93CF9383
:1003F000DF934B015C011091460382E090E0909303
:1004000044038093430381149104A104B10441F493
:1004100080914603811104C080914503C1E08111A0
:10042000C0E0C12CD12C760180914603811106C019
:1004300080914503811102C0CC23D9F083E090E084
:100440009093440380934303CC2381F1CCE9DFEF05
:10045000111102C00E943E10CE01DF91CF911F9179
:10046000FF90EF90DF90CF90BF90AF909F908F90D4
:1004700008956AE070E080E090E00E94DF2E80E165
:10048000C80E87E2D81EE11CF11C8FEF8816980673
:10049000A806B80631F0C1E08C149D04AE04BF0478
:1004A00008F0C0E080E00E94D70BBECFD0E0C0E0F3
:1004B000CFCFCF92DF92EF92FF920F931F93CF9304
:1004C000DF938F3F910511F008F051C02091430355
:1004D000309144032330310539F0209143033091AA
:1004E00044032130310531F424E030E030934403FB
:1004F000209343036A017B01EC0182309105A8F04F
:1005000011E0AE01C701B6010E94920BAB01BC0124
:10051000CE011123F9F0DF91CF911F910F91FF9040
:10052000EF90DF90CF900C9463128C01000F111F9D
:1005300009511E4FD8018D919C91892B09F30E947E
:100540006D120297E9F6D801ED91FC91CE01099563
:10055000182FD7CF0E94851290E080E0DF91CF91D5
:100560001F910F91FF90EF90DF90CF9008958FEF44
:100570009FEFF4CF80E00C94D70BCF93DF9386E00E
:1005800090E090934403809343030E94300CEC016D
:10059000E7EEF1E084E0DF011D928A95E9F70E9421
:1005A000D60F1092440310924303CE01DF91CF91F6
:1005B000089580914503089580912E0308956093D6
:1005C000160170931701809318019093190190E020
:1005D00080E008958F929F92AF92BF92CF92DF9268
:1005E000EF92FF926B017C0149015A0198D7882351
:1005F00049F0C0907206D0907306E0907406F090B7
:10060000750633C0C501B4018AD78111F2CFC50187
:10061000B40140D7882309F43DC0E894F7F820E0FE
:1006200030E040E85FE3C701B6010E94CC2A88238E
:1006300009F4AAC020E030E040E85FE3C701B6015A
:100640000E94692C20E030E0A9011816CCF4C50105
:10065000B4010E94692C1816CCF4C0906E06D0909C
:100660006F06E0907006F0907106C701B601FF902A
:10067000EF90DF90CF90BF90AF909F908F900895B4
:10068000C501B4010E94692C18163CF7C12CD12C6D
:100690007601EBCF20E030E0A901C501B4010E9452
:1006A000CC2A882309F470C020E030E040E85FE302
:1006B000C501B4019F770E94CC2A811114C020E0AB
:1006C00030E0A901C501B4010E94692C18166CF232
:1006D000A701960160E070E080E89FE30E94D02AC5
:1006E0006B017C01C2CF20E030E040E050E4C50166
:1006F000B4010E94CC2A811107C0A7019601C7014D
:10070000B6010E946D2CECCF20E030E040E05FE3CA
:10071000C501B4010E94CC2A20E030E0A90181117A
:1007200012C0C701B6010E94692C87FD34C0C70101
:10073000B601FF90EF90DF90CF90BF90AF909F9069
:100740008F900C94202DC701B6010E94CC2A87FF00
:100750000DC0C501B4010E94A12B9B01AC01C501D4
:10076000B4010E94692C18160CF443CFA501940122
:10077000C701B601FF90EF90DF90CF90BF90AF9090
:100780009F908F900C94D02CC12CD12C80E8E82E17
:100790008FE3F82E6ACF20E030E0A901C701B6014F
:1007A0000E94CC2A87FFE2CF24CF0F931F93CF93D1
:1007B000DF93C0919A02D0919B0200E416E0F80109
:1007C00080859185A285B38588839983AA83BB831D
:1007D000209162063091630640916406509165064F
:1007E000609108017091090180910A0190910B01BB
:1007F0000E946D2CF80124813581468157810E9429
:10080000682A6C837D838E839F83DF91CF911F91B4
:100810000F9108952F923F924F925F926F927F9225
:100820008F929F92AF92BF92CF92DF92EF92FF9200
:100830000F931F93CF93DF93CDB7DEB7A0970FB67B
:10084000F894DEBF0FBECDBF8091FD029091FE02F5
:100850008130910509F0E8C38091E1029091E202B4
:10086000A091E302B091E4028090E9029090EA0244
:10087000A090EB02B090EC02C090E502D090E602AE
:10088000E090E702F090E8028F3F2FEF9207A20777
:10089000B20709F0A6C3C701B6016F5F7F4F8F4F44
:1008A0009F4F0E94642BA50194010E946D2C20E0B3
:1008B00030E040E85FE40E946D2C60931B0270936F
:1008C0001C0280931D0290931E026FE070E080E096
:1008D00090E06EDC909302068093010643E050E0C6
:1008E000BE016F5F7F4F53DC2091140130911501E1
:1008F000A981BA810E94153260934C0670934D060F
:1009000080934E0690934F0620915E0630915F06CD
:10091000409160065091610660910401709105015B
:1009200080910601909107010E946D2C6B017C0162
:1009300060914C0670914D0680914E0690914F0645
:100940000E94642B20E030E040E053E30E946D2CD5
:100950009B01AC01C701B6010E94682A6093400662
:10096000709341068093420690934306CC24CA9428
:10097000DC2C7601C0922706D0922806E092290648
:10098000F0922A0661E088E08DDCC0923B06D092AE
:100990003C06E0923D06F0923E06109258061092F8
:1009A000590610925A0610925B0660E089E07ADCE4
:1009B000C0923606D0923706E0923806F092390699
:1009C0001092540610925506109256061092570631
:1009D00060E08AE067DCC0923106D0923206E09295
:1009E0003306F0923406109250061092510610927F
:1009F00052061092530660E08BE054DC20914006D2
:100A000030914106409142065091430660E070E00B
:100A100080E291E40E94672A20E030E040E050E468
:100A2000D9DD2DEC3CEC4CE45EE30E946D2C9B0187
:100A3000AC0160E070E080EA91E40E94672A6B01FB
:100A40007C01C0924406D0924506E0924606F092A0
:100A500047062091620630916306409164065091EA
:100A6000650660910C0170910D0180910E019091CD
:100A70000F010E946D2C4B015C01209110013091FF
:100A800011014091120150911301C701B6010E945A
:100A90006D2C9B01AC01C501B4010E94682A6B0159
:100AA0007C0160914C0670914D0680914E069091AC
:100AB0004F060E94642B20E030E040E053E30E94A8
:100AC0006D2C9B01AC01C701B6010E946D2C609397
:100AD00048067093490680934A0690934B0680918E
:100AE000FD029091FE02019771F56091F102709103
:100AF000F2028091F3029091F4020E94642B20E0B4
:100B000030E040E85FE40E946D2C6B017C01609155
:100B1000ED027091EE028091EF029091F0020E943E
:100B2000642B9B01AC01C701B6010E94682A20E03A
:100B300030E0A9010E94682A0E94382BAB01BC0159
:100B400081E090E0B6DC8091FD029091FE02019779
:100B500009F02EC2E0914B02F0914C020190F0811D
:100B6000E02D80819181A281B3818F839887A987AD
:100B7000BA8780911B0290911C02A0911D02B09136
:100B80001E02898F9A8FAB8FBC8FE0911F02F0916C
:100B90002002C080D180E280F380E0914F02F0918A
:100BA000500200811181E0911302F0911402208023
:100BB0003180A281B381BC83AB83848195819E8384
:100BC0008D8396819B87A781AD87E0911102F0917B
:100BD00012021182108288E0F801D10101900D9279
:100BE0008A95E1F7E0914902F0914A028B819C815C
:100BF00091838083DADD20E030E040E05FE3C701ED
:100C0000B6010E946D2C2B013C01AB81BC812D9162
:100C10003D914D915C910E946D2CF10120813181BB
:100C2000428153810E94682AD8016D937D938D93F0
:100C30009C931397EB81FC812481358146815781F8
:100C4000C301B2010E946D2CD10114962D913D91EA
:100C50004D915C9117970E94682AF801648375830F
:100C600086839783E0914B02F0914C02A080B18083
:100C7000A30192016F81788589859A850E94682AEF
:100C8000D5016D937D938D939C931397E0914902C9
:100C9000F0914A028D819E8191838083BBDD85DD49
:100CA00020E030E0A901C701B6010E946D2C4B0184
:100CB0005C0120E030E040E45FE3C701B6010E9440
:100CC0006D2C2B013C01AD81BE812D913D914D914B
:100CD0005C910E946D2C698B7A8B8B8B9C8BEB814A
:100CE000FC812081318142815381C501B4010E9480
:100CF0006D2C9B01AC0169897A898B899C890E9442
:100D0000682AD1012D913D914D915C910E94682AF4
:100D1000F8016083718382839383AB81BC811496D5
:100D20002D913D914D915C911797C501B4010E94A1
:100D30006D2C4B015C01ED81FE8124813581468162
:100D40005781C301B2010E946D2C9B01AC01C5010A
:100D5000B4010E94682AD10114962D913D914D91C4
:100D60005C9117970E94682AF801648375838683D3
:100D70009783E0914B02F0914C02A080B180A301D7
:100D800092016F81788589859A850E94682AD501AC
:100D90006D937D938D939C931397E0914902F0910D
:100DA0004A02BB85B0832D85218334DDFEDC29E337
:100DB0003EE843E65EE3C701B6010E946D2C6D8FED
:100DC0007E8F8F8F98A32BEA3AEA4AEA5EE3C70147
:100DD000B6010E946D2C698B7A8B8B8B9C8B29E3DF
:100DE0003EE843EE5EE3C701B6010E946D2C6D8BB9
:100DF0007E8B8F8B988F8B858F839D859887D10174
:100E00001896BC87AB87F10181919191A191B19125
:100E10001F018D879E87AF87B88BAB81BC816D9199
:100E20007D918D919D91BC83AB83ED81FE8141903D
:100E3000519061907190FE83ED83AF81B885CD9024
:100E4000DD90ED90FD90B887AF832D8D3E8D4F8D59
:100E500058A10E946D2C4B015C01A301920169898C
:100E60007A898B899C890E946D2C9B01AC01C501FC
:100E7000B4010E94682A4B015C01A70196016D89AB
:100E80007E898F89988D0E946D2C9B01AC01C501D4
:100E9000B4010E94682A2D853E854F8558890E949D
:100EA000682AF80161937193819391938F018B85E7
:100EB0009C852816390609F0A6CFE0914B02F091E7
:100EC0004C020190F081E02D898D9A8DAB8DBC8D07
:100ED00080839183A283B383E0911102F091120287
:100EE00081E090E0918380838091E1029091E20221
:100EF000A091E302B091E4020196A11DB11D80937F
:100F0000E1029093E202A093E302B093E402892B02
:100F10008A2B8B2B99F48091E5029091E602A091A7
:100F2000E702B091E8020196A11DB11D8093E50290
:100F30009093E602A093E702B093E80280911B022F
:100F400090911C02A0911D02B0911E02E09100033D
:100F5000F091010380839183A283B3838091ED029A
:100F60009091EE02A091EF02B091F0020196A11DC6
:100F7000B11D8093ED029093EE02A093EF02B09327
:100F8000F002892B8A2B8B2B99F48091F10290919E
:100F9000F202A091F302B091F4020196A11DB11DDD
:100FA0008093F1029093F202A093F302B093F402C3
:100FB000A0960FB6F894DEBF0FBECDBFDF91CF91E4
:100FC0001F910F91FF90EF90DF90CF90BF90AF9067
:100FD0009F908F907F906F905F904F903F902F9059
:100FE0000895BC01CD016F5F7F4F8F4F9F4F0E94CF
:100FF000642BA50194010E946D2C2B013C01C701BB
:10100000B6010E94642BA50194010E946D2C20E082
:1010100030E040E85FE40E946D2C9B01AC01C3010D
:10102000B2010E94682A49CC892B09F06DCCE0916D
:101030004B02F0914C020190F081E02D8081918172
:10104000A281B381E0910003F09101038083918339
:10105000A283B38359CC4F925F926F927F928F920B
:101060009F92AF92BF92EF92FF920F931F93CF93F5
:10107000DF9384E090E0D7D1EBE0F2E08FEFDF0187
:101080001D928A95E9F72DEF32E03783268380E0C1
:1010900093E090934C0280934B0209EE12E0158B83
:1010A000048B4AE952E057AF46AFC4E9D2E0D0938F
:1010B0005002C0934F0249ED52E050934E024093CC
:1010C0004D024BED52E0509352024093510246E9DB
:1010D00052E0509354024093530248E952E0509337
:1010E0005602409355024CE952E0509392024093CD
:1010F0009102F0937602E0937502F583E48361E058
:1011000070E0D9016D937C9321EC32E061EA72E0EA
:10111000D9016D937C9369EA72E07093C402609385
:10112000C30261EB72E07093C6026093C50269EB83
:1011300072E07093C8026093C7026EE5E62E66E027
:10114000F62EF982E8827CE5672E76E0772EEA01BA
:10115000798268823187208720E431E033872287D3
:1011600022E033E0DC012D933C9340E050E060E866
:101170007FEB4093F9025093FA026093FB02709365
:10118000FC024AE057ED63E27CE3E80148835983BF
:101190006A837B8329EC32E08BED9FECA6E0B8E715
:1011A000E90188839983AA83BB8380E79EE7AAE14C
:1011B000B0E58093CD029093CE02A093CF02B0937E
:1011C000D00288EA95EBAAECB6E18093D102909325
:1011D000D202A093D302B093D40283E893E0ABE7AA
:1011E000B4E28093D5029093D602A093D702B09335
:1011F000D802AFEFB1E0B383A283EBEEF1E011963A
:10120000FC93EE9385E491E09183808393838283C2
:10121000958384839783868391878087938782874A
:101220009587848797878687918B808B938B828B1A
:101230008FED92E015969C938E93149713963C93A2
:101240002E93129788248A94982C540118968D9284
:101250009D92AD92BC921B97E0E4F6E08CE1DF0139
:101260001D928A95E9F788E0E70119928A95E9F7D6
:10127000F30111821082CBEFD5E085E4DE011D92EF
:101280008A95E9F711E01DAB412C512C32014394B2
:1012900049825A826B827C826FE070E080E090E04D
:1012A0000E941C019F838E831D8318A21CAB49A240
:1012B0005AA26BA27CA261E088E00E944A011DA3B1
:1012C000188E1BAB498E5A8E6B8E7C8E61E089E046
:1012D0000E944A011D8F188A1AAB498A5A8A6B8A62
:1012E0007C8A61E08AE00E944A011D8B188619AB56
:1012F00049865A866B867C8661E08BE00E944A01B3
:101300001D878091000190910101A0910201B0918F
:101310000301F70180839183A283B3831482158232
:10132000168217828CA69DA6AEA6BFA680923B060B
:1013300090923C06A0923D06B0923E068BAE9CAECB
:10134000ADAEBEAE8EAA9FAAA8AEB9AEDF91CF91C8
:101350001F910F91FF90EF90BF90AF909F908F9053
:101360007F906F905F904F9008958091FB05811161
:101370001FC081E08093FB058091FC059091FD05E5
:10138000A091FE05B091FF050197A105B10581F47B
:1013900080910006882361F06FE070E080E090E0CB
:1013A0000E94D80090930206809301060E943F019C
:1013B00080911B06811103C081E080931B06809100
:1013C0001306811103C081E08093130680910B0600
:1013D000811103C081E080930B0680910306811187
:1013E00003C081E080930306089560E070E080E828
:1013F0009FE7089560E070E080E89FE7089560E06F
:1014000070E080E89FEF089560E070E080E89FEF73
:10141000089560E070E080EC9FEF089560E070E078
:1014200080EC9FEF0895F5DF60937206709373066A
:101430008093740690937506F1DF6093660670934F
:1014400067068093680690936906CFDF60936E0607
:1014500070936F068093700690937106CBDF609354
:101460006A0670936B0680936C0690936D06C7DFD7
:10147000609376067093770680937806909379064A
:10148000C3DF60937A0670937B0680937C0690930B
:101490007D060895CF92DF92EF92FF92CF936B017A
:1014A0007C01AC019B0160916E0670916F0680918A
:1014B0007006909171060E94CC2AC1E0882371F0D9
:1014C000A701960160917606709177068091780663
:1014D000909179060E94CC2A8111C0E08C2FCF9187
:1014E000FF90EF90DF90CF9008950F931F938B01A3
:1014F0009C010027112720783F770115110520480E
:101500003F4749F4AB01BC016F77772781E0452B5A
:10151000462B472B09F480E01F910F910895E5CFEA
:101520004F925F926F927F928F929F92AF92BF92F3
:10153000CF92DF92EF92FF920F931F93F894409017
:101540001603509017036090180370901903C09011
:101550000A03D0900B03E0900C03F0900D03413090
:10156000510509F0A4C09B01AC01241935094609B5
:10157000570929013A010091120310911303209198
:1015800014033091150348015901840C951CA61CC5
:10159000B71C80169106A206B306A0F400910E03B4
:1015A00010910F0320911003309111030F5F1F4F13
:1015B0002F4F3F4F00930E0310930F032093100300
:1015C000309311038092120390921303A09214039C
:1015D000B092150300910E0310910F032091100398
:1015E0003091110380921A0390921B03A0921C0366
:1015F000B0921D0300931E0310931F03209320033A
:10160000309321036093160370931703809318039C
:1016100090931903A0E1B7E2A30192010E94243242
:101620006C0D7D1D8E1D9F1D60930A0370930B032F
:1016300080930C0390930D030091160110911701F4
:1016400020911801309119010F3F1F4F2F4F3F4F2D
:10165000F1F00091160110911701209118013091BD
:1016600019010E3F1F4F2F4F3F4F89F0C0901601B9
:10167000D0901701E0901801F090190121E08C142E
:101680009D04AE04BF0408F420E020932E03789458
:101690001F910F91FF90EF90DF90CF90BF90AF9090
:1016A0009F908F907F906F905F904F9008954B0127
:1016B0005C0184189508A608B708A3019201261BAF
:1016C000370B480B590B6415750586059705D0F047
:1016D00082169306A406B50640F420E030E0A90186
:1016E00081149104A104B10491F4A0E1B7E20E9435
:1016F0002432A7019601261B370B480B590BCA0150
:10170000B901C5CF82169306A406B50670F7A0E10D
:10171000B7E2A50194010E9424326C0D7D1D8E1D3F
:101720009F1DB5CFFDCECF93DF9300D000D0CDB7B6
:10173000DEB71C821B821A82198210922A03109231
:101740002B0310922C0310922D031092220310925F
:101750002303109224031092250310922603109263
:1017600027031092280310922903BE016F5F7F4F59
:10177000CE0103960E94972869817A818B819C8192
:101780000E948D21009761F4BE016F5F7F4FCE01F3
:1017900003960E94A32869817A818B819C8129D537
:1017A0000F900F900F900F90DF91CF910895FF92BF
:1017B0000F931F93CF93DF93082F60E070E0CB016E
:1017C0000E94DF2EFF24F3940E947820EC01892BE5
:1017D00089F010E0CE3F8FEFD80769F0002361F168
:1017E00060E070E0CB010E94DF2E81E090E0892B69
:1017F00059F322C011E020D5EC01892B21F0CE3F16
:101800008FEFD80759F711111EC011E0229609F485
:1018100010E00E942920EC01892B21F0CE3F8FEFB0
:10182000D807E1F6111111C011E0CE3F8FEFD807B4
:1018300009F410E001110BC0CE01DF91CF911F918F
:101840000F91FF90089511E0E4CF11E0F3CF60E035
:1018500070E0CB010E94DF2E1F25812F90E0C7CFC3
:10186000CF93DF9380912E03882321F060E070E016
:10187000CB0149D632D6D0E0C0E0892B71F06AE0C6
:1018800070E080E090E00E94DF2E81E090DF25D6BE
:101890002196C03727E1D20781F724D60E94E121A3
:1018A000109246031092450310923F03109240039A
:1018B000109241031092420310923B0310923C039A
:1018C00010923D0310923E0310923703109238039A
:1018D0001092390310923A0310923303109234039A
:1018E000109235031092360310922F03109230039A
:1018F00010923103109232034EEF5FEF6FEF7FEFE4
:1019000040931601509317016093180170931901C9
:1019100010922E03EAE1F3E028E0DF011D922A9500
:10192000E9F7109216031092170310921803109201
:1019300019031092120310921303109214031092C1
:10194000150310920E0310920F03109210031092C1
:10195000110310920A0310920B0310920C031092C1
:101960000D03DF91CF91089510925203109253030B
:1019700010925403109255031092510380915A0310
:1019800090915B039093500380934F0310924E030A
:1019900010924D031092490310924A0310924B0388
:1019A00010924C03109257031092560390E080E07F
:1019B0000895CF92DF92EF92FF920F931F93CF93F0
:1019C0008C01019709F055C020915A0330915B03B7
:1019D00080914F039091500340915A0350915B03C3
:1019E0005093500340934F032817390781F010920A
:1019F0004E0310924D031092490310924A03109225
:101A00004B0310924C03109257031092560380918F
:101A10005A0390915B03019761F580915603909171
:101A20005703892B21F480911A01811112C08091F2
:101A30005603909157030197E1F4809149039091E7
:101A40004A03A0914B03B0914C030197A105B10546
:101A500081F41092490310924A0310924B031092A2
:101A60004C0310921A0182E090E090935703809308
:101A7000560380915A0390915B03019709F01CC1B2
:101A800080917003909171038017910709F014C140
:101A900080916C0390916D03A0916E03B0916F03E0
:101AA000009709F409C120916B0321110DC04091E9
:101AB0006C0350916D0360916E0370916F03452B21
:101AC000462B472B09F4F8C0209156033091570359
:101AD0002230310509F0F0C020914D032111ECC0F6
:101AE000FC01C080D180E280F38080915103882383
:101AF00009F4D3C080915D0390915E03892B09F4B2
:101B0000FEC020915D0330915E0381E022303105FB
:101B100009F080E020915D0330915E03C1E0213047
:101B2000310549F020915D0330915E03C1E0223020
:101B3000310509F0C0E0882309F456C020916703FD
:101B4000309168034091690350916A03C701B6015F
:101B50000E94692C87FD14C02091670330916803AF
:101B60004091690350916A0360915203709153034D
:101B700080915403909155030E94CC2A87FD22C086
:101B800020916703309168034091690350916A0383
:101B9000C701B6010E94692C181634F5209167031D
:101BA000309168034091690350916A036091520338
:101BB0007091530380915403909155030E94CC2A55
:101BC000811112C080915F0390916003A091610325
:101BD000B0916203892B8A2B8B2B19F481E08093BF
:101BE0004E0381E080934D03CC2309F456C020912D
:101BF0006703309168034091690350916A03C701FC
:101C0000B6010E94CC2A87FF14C02091670330914F
:101C100068034091690350916A0360915203709187
:101C2000530380915403909155030E94692C87FFC0
:101C300022C020916703309168034091690350915D
:101C40006A03C701B6010E94CC2A811126C02091E7
:101C50006703309168034091690350916A03609172
:101C600052037091530380915403909155030E9445
:101C7000692C181694F480915F0390916003A091F1
:101C80006103B0916203892B8A2B8B2B19F481E0BD
:101C900080934E0381E080934D0381E090914D034A
:101CA000911180E080935103C0925203D09253036C
:101CB000E0925403F09255030130110509F067C119
:101CC0008091560390915703892BD9F410925C03AD
:101CD00010924D0380911A01882379F082E090E000
:101CE000909357038093560310921A0120915A0340
:101CF00030915B0381E0232BE9F080E01BC081E0A1
:101D000009CF10921A0180915C03882349F0109248
:101D10004E03109257031092560310925C03EDCFBE
:101D200080915A0390915B03892BE1F080914D03E0
:101D300010924D0320915603309157032230310504
:101D400009F45EC088F42115310509F448C021303A
:101D5000310509F4F3C010924E0310924D03109216
:101D60005C0338C081E0E6CF2330310509F4B1C00F
:101D70002430310581F74091490350914A03609125
:101D80004B0370914C03411551056105710561F0DC
:101D900041505109610971094093490350934A0325
:101DA00060934B0370934C034091490350914A0355
:101DB00060914B0370914C03452B462B472BD9F474
:101DC00020915803309159032130310509F046C064
:101DD00010924E0310925703109256030CC080913C
:101DE0001A01882341F082E090E09093570380939A
:101DF000560310921A011092470380914E03CEC0F1
:101E00008823C9F380915F0390916003A0916103DF
:101E1000B0916203181619061A061B060CF07DC055
:101E200080915A0390915B03019709F076C08091ED
:101E30005F0390916003A0916103B091620380936E
:101E4000490390934A03A0934B03B0934C0383E060
:101E500090E09093570380935603CDCF4091630356
:101E6000509164036091650370916603452B462B86
:101E7000472BA9F010924E03809163039091640365
:101E8000A0916503B09166038093490390934A0340
:101E9000A0934B03B0934C0381E090E0DACF88230A
:101EA00099F080911B0190911C01A0911D01B091AE
:101EB0001E018093490390934A03A0934B03B09370
:101EC0004C0384E090E0C5CF10924E0382E090E096
:101ED000C0CF8091490390914A03A0914B03B091E8
:101EE0004C030097A105B10559F00197A109B1096B
:101EF0008093490390934A03A0934B03B0934C0300
:101F00008091490390914A03A0914B03B0914C03F7
:101F1000892B8A2B8B2B09F06ECF80911B0190911E
:101F20001C01A0911D01B0911E01892B8A2B8B2BC6
:101F300009F44ECF81E080934E03B3CF4091490323
:101F400050914A0360914B0370914C034115510528
:101F50006105710561F041505109610971094093B2
:101F6000490350934A0360934B0370934C03409191
:101F7000490350914A0360914B0370914C03452BE8
:101F8000462B472B09F037CF8111C7CF9FCF8091C8
:101F90004703882309F431CF80914803CF911F91E3
:101FA0000F91FF90EF90DF90CF9008951092520321
:101FB0001092530310925403109255031092510340
:101FC00010925703109256031092500310924F0331
:101FD000109271031092700310924E0310924D03F1
:101FE0001092490310924A0310924B0310924C0333
:101FF000109248031092470310926C0310926D03E5
:1020000010926E0310926F0310926B03109267038D
:10201000109268031092690310926A0388EE93E0AD
:10202000A0E0B0E080931B0190931C01A0931D01E0
:10203000B0931E0110926303109264031092650323
:102040001092660310925F03109260031092610376
:102050001092620310925E0310925D0381E0809300
:102060001A0110925C0310925B0310925A031092B3
:1020700059031092580390E080E0089580915A032C
:1020800090915B03892BE1F480911A01882351F030
:1020900080915C03811106C081E0809348038093A6
:1020A0004703089580915C03882341F080911A01D1
:1020B000811104C01092480381E0F1CF10924703D0
:1020C000089582E090E0FA01918380838FEF9FEF83
:1020D0000895CF93DF93EA01009711F00E94FE224A
:1020E0001982188290E080E0DF91CF910895DB01A2
:1020F000009719F48FEF8C9308952EEF2C93409650
:102100008031910508F036C0FC01E757FF4E0C9472
:102110000F32B810B610B410B210B010AE10AA1032
:10212000AC10A810A610A410A1109D1099109F101B
:10213000BA1080E311968C93089589E2FBCF82E276
:10214000F9CF11961C92089583E2F4CF81E2F2CF89
:1021500081E1F0CF87E2EECF8AE2ECCF80E1EACFF7
:1021600084E2E8CF88E2E6CF86E2E4CF81E3E2CF03
:1021700083E3E0CF80E2DECF80917E0390917F0306
:10218000089590937F0380937E03089580917D034B
:10219000089590917D03892B80937D030895982F56
:1021A000909580917D03892380937D03089580918C
:1021B0007C03089580917A0390917B0308956115C3
:1021C000710559F0FB0130E020E070E060E0241779
:1021D000350719F06115710511F0CB010895A08143
:1021E000B181A817B90709F4BF012F5F3F4F369699
:1021F000EECF8091800381111CC062D268D290938F
:102200007303809372030E94031B0E94151B90931B
:102210007703809376030E94931F0E949A1F9093E6
:1022200075038093740381E08093800390E080E0E5
:10223000089584EF9FEF08958F929F92AF92BF927F
:10224000CF92DF92EF92FF920F931F93CF93DF9382
:10225000CDB7DEB72A970FB6F894DEBF0FBECDBF5D
:102260001A86198618861F821E821D821C821B8276
:102270001A8219828091800307EF1FEF882309F4E7
:102280009CC08E010D5F1F4F9E012B5F3F4FAE0123
:10229000495F5F4FBE01675F7F4F90E080E00E9423
:1022A00013218C01009721F00596029708F0DBC0FE
:1022B00029853A852115310509F402C1ED80FE809A
:1022C0004B815C81B701640F751F8F8198858617DC
:1022D000970708F4F5C0E20EF31ED7019C91903CDD
:1022E00009F07FC04230510508F47BC011968C91F3
:1022F00040917E0350917F03452B09F49CC0913F90
:1023000008F071C02CE1290F2D3008F48BC02DE2AC
:10231000290F203108F489C0903C21F4815082308B
:1023200008F483C088E3890F8B3008F481C097E7F5
:10233000C92E90E1D92EE1E6F0E16D817E81AE01FA
:102340004F5F5F4F89859A8509955C01C114D1045F
:10235000A1F189809A808114910479F18B819C810B
:102360008815990508F487C010E000E04B815C8176
:1023700070E060E0C7010E94373201151105E9F4F1
:1023800049815A8169857A858D819E81680F791F7F
:10239000C501F6010995E980FA800D811E812F8122
:1023A000388549855A856FEF7FEF81E090E00E9484
:1023B000AF208C01892B09F056C0C8012A960FB6B0
:1023C000F894DEBF0FBECDBFDF91CF911F910F916B
:1023D000FF90EF90DF90CF90BF90AF909F908F9045
:1023E000089580E085CF30E020E0220F331FF9010F
:1023F000EE58FC4F0190F081E02D309709F497CF13
:10240000892F90E00995009709F491CFDC0112968D
:10241000ED91FC9113971496CD90DC90309709F0D4
:102420008CCF1FC021E030E0E0CF22E030E0DDCFF4
:1024300023E030E0DACFD12CC12CE9E6F0E19F3F78
:1024400009F07BCFE0917203F0917303309721F490
:10245000C90104EF1FEF0CC08FEF90E009950097C2
:10246000A9F604EF1FEF89859A85009709F4A5CF97
:102470000E94FE22A2CF0E94DC218C0189859A85D0
:102480000E94FE2270E060E0C4010E9475219887DE
:102490008F830E94AC209E838D836F817885611528
:1024A000710559F0C8010E948A249A87898706EF2E
:1024B0001FEF892B09F058CF59CF08EF1FEF56CFE8
:1024C00008EF1FEFD0CF20918003222319F020E0E6
:1024D0000C941A1B87EF9FEF089580917E039091D3
:1024E0007F0308950E949F1F0E94F91EF5D0E2E726
:1024F000F3E088E0DF011D928A95E9F710928003EE
:1025000090E080E008950C94561D21E040E050E0FA
:10251000BA010C941A1B86E090E0FA019183808343
:1025200090E080E0089547E050E068E471E047CE35
:10253000DF92EF92FF920F931F93CF93DF938A0165
:10254000EC01C60FD71FE0908403F0908503D9807B
:102550000E94C421D816190678F082E090E0F801B4
:10256000918380838EEF9FEFDF91CF911F910F9129
:10257000FF90EF90DF900895EF2841F482E090E023
:10258000F8019183808384EF9FEFEECF8981809360
:10259000830390E00196F8019183808390E080E0CE
:1025A000E3CFCF93DF93EA010E94071E882321F037
:1025B0000E94D1210E94081E82E090E099838883C6
:1025C0008BEF9FEFDF91CF910895CF93DF93EB01D6
:1025D00086E0FB0111928A95E9F78FEF8883D6DDBB
:1025E0008983E5DD8A83E6DD9D838C83DF91CF914E
:1025F0000895CF93DF93EA010E940A1E811109C05A
:1026000082E090E09983888385EF9FEFDF91CF91FF
:10261000089590E080E0B5DD81E090E099838883C3
:1026200090E080E0F3CF0F931F93CF93DF93EA0105
:102630008C01060F171F0E940A1E81110BC082E039
:1026400090E09983888385EF9FEFDF91CF911F9171
:102650000F910895F8018181823038F082E090E096
:10266000998388838EEF9FEFF0CF81E090E089DD42
:1026700088E090E09983888390E080E0E6CFCF9374
:10268000DF930097D1F4EB01FB01329686E0DF0186
:102690001D928A95E9F78FEF888385E089831A82F6
:1026A0000E94C4218B830E94C3219D838C8381E07F
:1026B0008E838F83DF91CF910895DF91CF9117CDD6
:1026C00083E992E19093820380938103089580913E
:1026D00081039091820308951092820310928103E6
:1026E000089580918403909185030895411105C058
:1026F000611571058105910561F060938403709304
:10270000850380938603909387034093880381E039
:10271000089580E00895FF920F931F93CF93DF9366
:102720008A01EC01C60FD71FF9800E94C421F81658
:10273000190668F082E090E0F801918380838EEFC3
:102740009FEFDF91CF911F910F91FF9008956C81C2
:102750007D818E819F814B81C9DF811108C082E01C
:1027600090E0F8019183808384EF9FEFEACF898125
:102770008093830390E00196F8019183808390E039
:1027800080E0DFCFCF93DF93EA01FC01E60FF71F74
:1027900064817581868197814381A8DF811109C099
:1027A00082E090E09983888384EF9FEFDF91CF915F
:1027B000089581E090E09983888390E080E0F6CFEF
:1027C000E4E8F3E04081518162817381480F511D3B
:1027D000611D711D40835183628373830895CF937C
:1027E000C09183034C2F50E0609184037091850366
:1027F00001960E942E328C2FE3DF10928303CF913B
:102800000895009799F480918403909185032FEFA8
:10281000FB012083892B59F02091830330E02F5F47
:102820003F4F2417350719F4CB01D9CF60CC089559
:10283000009799F480918403909185032FEFFB0119
:102840002083892B59F02091830330E02F5F3F4F85
:102850002417350719F4CB01C2CF49CC089523E1E1
:10286000AC01249FC001259F900D1124E0918D03A0
:10287000F0918E03E80FF91F238134812250310932
:1028800081E02230310508F080E008950F931F9316
:10289000CF93DF9300918F0310919003D0E0C0E0BD
:1028A00080E00C171D0749F491E0811190E0892F19
:1028B000DF91CF911F910F9108958111F5CFCE0136
:1028C000CEDF2196EECFA0918D03B0918E031097AD
:1028D00029F120918F033091900382179307F0F430
:1028E00053E1589F9001599F300D1124A20FB31F3F
:1028F000ED91FC911197309789F012968C916817A1
:1029000068F48DE0689FE00DF11D112480819181B4
:10291000892B21F081E09281491708F080E0089529
:102920009C0143E1429FC001439F900D1124E0911F
:102930008D03F0918E03E80FF91F8385823091F4A7
:1029400081E090E06581768140911F0150912001E6
:102950006417750711F490E080E0892B19F081E08D
:10296000232B09F080E00895FC01A081B1818DE066
:10297000689FA00DB11D112413964D915C91858522
:102980009685489F9001499F300D589F300D112426
:10299000C9010196611103C0478144FD0496089561
:1029A000EF92FF920F931F93CF93DF93EA01FC0105
:1029B000E60FF71F02811381E480F5804F2D6E2D05
:1029C000C80181DF81110DC082E090E09983888386
:1029D0008EEF9FEFDF91CF911F910F91FF90EF90BE
:1029E0000895C8013CDF882339F082E090E09983A4
:1029F000888388EF9FEFEECF109326010093250187
:102A0000E0922701F092280181E090E09983888389
:102A100090E080E0DFCFCF92DF92EF92FF920F93B2
:102A20001F93CF93DF937A01EC01C60FD71FC0909D
:102A30002501D09026010091270110912801412FF6
:102A4000602FC60140DF811110C082E090E0F701E5
:102A5000918380838AEF9FEFDF91CF911F910F9138
:102A6000FF90EF90DF90CF900895C601F8DE8823A5
:102A700041F082E090E0F7019183808388EF9FEF3F
:102A8000EBCF4C815D816E817F819A8189818F3FFF
:102A900041F082E090E0F701918380838EEF9FEF19
:102AA000DBCFE3E1EC9D9001ED9D300D1124E09131
:102AB0008D03F0918E03E20FF31F0190F081E02D62
:102AC0002DE0029FE00DF11D11240190F081E02D19
:102AD00027E0129FE00DF11D1124808391838B81EB
:102AE000828343835483658376831F5F1093280119
:102AF00081E090E0F7019183808390E080E0ACCFAB
:102B0000EF92FF920F931F93CF93DF937A018C0183
:102B1000060F171FC0918D03D0918E03209781F06F
:102B200021E030E0F8018281938140918F03509140
:102B300090038417950710F030E020E0232B71F408
:102B400082E090E0F701918380838EEF9FEFDF9129
:102B5000CF911F910F91FF90EF90089543E1489F0F
:102B60009001499F300D1124C20FD31F78DE8823B6
:102B700041F082E090E0F7019183808388EF9FEF3E
:102B8000E6CFF8012481358120383105C8F68781E8
:102B90008111D6CF4181842F90E08F7E009741F044
:102BA00082E090E0F7019183808386EF9FEFCFCFA3
:102BB0004F833E832D83268128871986223010F487
:102BC00021E0288721E030E0F70131832083BFCF67
:102BD00088E090E0FA019183808390E080E008959E
:102BE000FB018FEF808381E181838FEF9FEF9383E0
:102BF000828380E890E0958384831682178208950B
:102C0000FB018FEF808391E09183828393838483A0
:102C100084E3858381E090E097838683089582E052
:102C200090E0FA019183808380EF9FEF0895DF9217
:102C3000EF92FF920F931F93CF93DF93EA01FC0172
:102C4000E60FF71F8181813071F082E090E0998377
:102C500088838FEF9FEFDF91CF911F910F91FF90AE
:102C6000EF90DF90089582819381D4802581E68062
:102C7000F78000918D0310918E030115110539F431
:102C800082E090E0998388838CEF9FEFE4CF4091BE
:102C90008F03509190038417950738F082E090E0FD
:102CA000998388838EEF9FEFD6CF892B39F082E00E
:102CB00090E09983888386EF9FEFCDCF8D2D8D7F18
:102CC000B1F72130A1F781E0D11006C091E0E916FB
:102CD000F10431F080E004C0E2E0EE16F104D0F33C
:102CE000882329F390E080E0BADD882339F082E080
:102CF00090E09983888388EF9FEFADCFF801D3866A
:102D000081E08487F686E586108A178681E090E068
:102D10009983888390E080E09ECF4DE050E062E7A9
:102D200071E04DCA8F929F92BF92CF92DF92EF9245
:102D3000FF920F931F93CF93DF93EA01FC01E60FFD
:102D4000F71F828193810481B580E0918D03F0911A
:102D50008E03309791F482E090E0998388838CEF22
:102D60009FEFDF91CF911F910F91FF90EF90DF9038
:102D7000CF90BF909F908F90089520918F033091B6
:102D800090038217930738F082E090E0998388835C
:102D90008EEF9FEFE6CF23E1289F6001299FD00CA3
:102DA0001124EC0DFD1DE080F180E114F10499F295
:102DB0008281081748F78DE0089F80011124E00EFA
:102DC000F11EF70180819181892B29F6BB20E1F268
:102DD000F7E0BF9E40011124C4010E94C522F70103
:102DE00091838083E0918D03F0918E03EC0DFD1DA6
:102DF0000190F081E02DE00FF11F8081918100971B
:102E000039F482E090E0998388838DEF9FEFA9CF1A
:102E1000A40170E060E00E94373280918D039091B0
:102E20008E03C80ED91EF60180819181080F191FEB
:102E3000F801B28281E090E09983888390E080E09D
:102E400090CFAF92BF92CF92DF92FF920F931F93DA
:102E5000CF93DF93EA01FC01E60FF71F8281938194
:102E6000F48000918D0310918E030115110581F4FA
:102E700082E090E0998388838CEF9FEFDF91CF9180
:102E80001F910F91FF90DF90CF90BF90AF9008956A
:102E900020918F03309190038217930738F082E0DE
:102EA00090E0998388838EEF9FEFE8CF2FEF2F0D6F
:102EB0002C3FA8F723E1289F6001299FD00C112403
:102EC0000C0D1D1DF80180819181892B89F6FDE093
:102ED000FF9E50011124C5010E94C522F801918373
:102EE0008083E0918D03F0918E03EC0DFD1D8081B8
:102EF0009181009739F482E090E0998388838DEF87
:102F00009FEFBCCFA50170E060E00E943732E091F6
:102F10008D03F0918E03EC0DFD1DF28281E090E0B7
:102F20009983888390E080E0A9CFCF92DF92EF92DF
:102F3000FF920F931F93CF93DF93860F971FFC0190
:102F40000281138180918D0390918E03892B81F0F2
:102F500082E090E0FA01918380838CEF9FEFDF9114
:102F6000CF911F910F91FF90EF90DF90CF90089538
:102F7000C801B0E0A0E00197A109B1098F3F9F4FC0
:102F8000A105B10540F082E090E0FA0191838083D1
:102F90008EEF9FEFE4CF7A0183E1809F6001819FF4
:102FA000D00C1124C6010E94C522EC01009741F407
:102FB00082E090E0F701918380838DEF9FEFCFCF88
:102FC000A60170E060E00E943732D0938E03C09378
:102FD0008D031093900300938F0390E080E02FEF18
:102FE0003FEF41E061E070E08017910741F481E03C
:102FF00090E0F7019183808390E080E0B0CF3A8B3E
:10300000298B1B864C877E876D87188A1F860196C1
:103010006396EACFEF92FF921F93CF93DF93EC0179
:1030200010E0F12CE12C6A811617A8F070E0660F11
:10303000771FAE014F5E5F4FC7010E942A230097A2
:1030400021F02FEF3FEF3A8B298BDF91CF911F912A
:10305000FF90EF900895612FCE0186DC61E070E073
:103060000E947521E816F90608F47C011F5FDBCF8A
:10307000F89420918B0330918C0381E02115310568
:1030800009F080E0232B09F0789408952F923F9265
:103090004F925F926F927F928F929F92AF92BF9268
:1030A000CF92DF92EF92FF920F931F93CF93DF9314
:1030B0003C01660E771EF301828193814C01B12C95
:1030C000A12CC0918D03D0918E03209769F021E04F
:1030D00030E060918F03709190038617970710F08E
:1030E00030E020E0232BD1F482E090E0FA019183DC
:1030F00080838EEF9FEFDF91CF911F910F91FF9013
:10310000EF90DF90CF90BF90AF909F908F907F9087
:103110006F905F904F903F902F900895809229017B
:1031200090922A01A0922B01B0922C0163E1689F3A
:103130009001699F300D1124C20FD31FF3018181CB
:10314000833040F082E090E0FA019183808386EF43
:103150009FEFD1CF2A012B813C81232BF1F42881D1
:1031600039819F8191FF2EC0232B09F46FC02091DC
:1031700092039A81422F490F5527551FBA0141E00A
:1031800050E06138710514F050E040E0452B09F43F
:103190005DC02A87920F909392038150823008F489
:1031A00081C066DF882309F4D8C0F30181818130B2
:1031B00009F48DC008F47BC0823009F4C6C090E0E9
:1031C00080E0ADC0232B09F441C0209191039A8186
:1031D000E22FE90FFF27FF1F41E050E0ED3FF1052F
:1031E00014F050E040E0452B89F12A87920F90932C
:1031F0009103D3CFA081B181A20FB31F11966C911F
:10320000060F111D0196295F3F4F8417950794F310
:103210008D859E85089F1001099F300C189F300CEA
:103220001124C114D104D1F48F8184FF17C00E94EE
:10323000C321F5E02F0E311C21E08215930508F41F
:1032400020E0A701435F5F4F21110EC082E090E0B4
:10325000F2019183808387EF9FEF4DCF0E94C321BE
:103260002FEF221A320AE8CF88819981E80EF91EE1
:10327000F70114830383FFEFCF1ADF0A7A018A81F3
:103280008C151D0409F00CF48CCFE881F981EE0D4A
:10329000FF1D428150E030E020E010E000E090E0CF
:1032A00080E0B3CFF12CE12CD12CC12CE8CF81E010
:1032B00090E09C838B83EADA882309F480CF81E055
:1032C00090E00E94C11080E40E94CF1078CF8989DD
:1032D0009A89019661F083E090E09C838B8382E081
:1032E00090E00E94C11080E40E94C91068CF8D81D7
:1032F0009E8120911F013091200182179307D1F404
:103300006091230170912401AE014F5E5F4F809167
:103310002101909122010E9449240097E1F27894C2
:1033200022E030E0F20131832083892B99F08DEF88
:103330009FEFE1CE89288A288B2869F6029758F6F4
:10334000CE0168DE188A1F86E8CF82E090E09C8379
:103350008B8335CF90E080E0CECE82E090E0F2012A
:103360009183808385EF9FEFC6CE8F929F92AF921D
:10337000BF92CF92DF92EF92FF920F931F93CF9362
:10338000DF93EA018C01060F171FF801818183305A
:1033900098F082E090E09983888386EF9FEFDF9139
:1033A000CF911F910F91FF90EF90DF90CF90BF9042
:1033B000AF909F908F90089580918D0390918E0390
:1033C000892B61F081E090E020918F033091900390
:1033D000232B11F490E080E0892B39F482E090E017
:1033E000998388838EEF9FEFDACF42DE882309F43A
:1033F000E0C0F8018181813009F496C0E8F08230A4
:1034000099F420918F0330919003E0918D03F09116
:103410008E0390E080E041E050E02817390709F082
:10342000BEC034DA811117C0789481E090E09983AE
:10343000888390E080E0B3CF20918F033091900398
:10344000E0918D03F0918E0390E080E041E050E048
:103450002817390741F481E090E00E94C11080E410
:103460000E94CF10E1CF63817481672B11F05483E8
:10347000438301967396ECCFE0918D03F0918E0318
:10348000E00FF11F2381348122303105D9F42189E5
:1034900032892F3F3F4FB1F42581368140911F0182
:1034A000509120012417350761F5AF014F5E5F4F42
:1034B000609123017091240180912101909122015A
:1034C0000E944924EFEFCE1ADE0AEE0AFE0A0D5ED4
:1034D0001F4F40918F035091900370E060E0C4163D
:1034E000D506E606F70644F5009731F27894892B65
:1034F00009F49BCF82E090E0998388838DEF9FEF62
:103500004ECFC114D104E104F104E1F622303105BB
:10351000C8F6CF017FDDE0918D03F0918E03E00FBF
:10352000F11F108A1786CECF10E000E090E080E017
:10353000C12CD12C7601CDCF0097C1F610E000E070
:10354000812C912C540183E0E82EF12C1AC0E091DB
:103550008D03F0918E03E00FF11F83819481029718
:1035600049F4F482E38282E090E00E94C11080E49A
:103570000E94C910FFEF8F1A9F0AAF0ABF0A0D5EA3
:103580001F4F80918F0390919003B0E0A0E08816C8
:103590009906AA06BB06DCF290E080E0A7CF638123
:1035A00074816230710511F45483438301967396DC
:1035B00034CF82E090E09983888385EF9FEFEFCE50
:1035C0000097B9F48FEFFB0180832091290130919E
:1035D0002A0143E1429FC001439F900D1124E091D5
:1035E0008D03F0918E03E80FF91F8285FB01818323
:1035F00008950C94771088E090E0FA01918380831D
:1036000090E080E0089510928C0310928B03EDE817
:10361000F3E086E0DF011D928A95E9F78DE896E1F7
:1036200090938A03809389030895809189039091F0
:103630008A0308952F923F924F925F926F927F92EA
:103640008F929F92AF92BF92CF92DF92EF92FF92B2
:103650000F931F93CF93DF93CDB7DEB72F970FB69E
:10366000F894DEBF0FBECDBFF894E0918B03F091CC
:103670008C033196F0938C03E0938B037894409005
:103680008D0350908E034114510409F40CC2E09153
:103690008F03F0919003EF2B09F405C22D87498722
:1036A0005A876B877C8798878F831201B12CA12C56
:1036B00010E000E080918F0390919003A816B90666
:1036C00018F40115110529F1F89480918B0390915C
:1036D0008C03019790938C0380938B037894C8019B
:1036E0002F960FB6F894DEBF0FBECDBFDF91CF91FE
:1036F0001F910F91FF90EF90DF90CF90BF90AF9010
:103700009F908F907F906F905F904F903F902F9001
:1037100008957101E418F508D10117968C91179757
:1037200081FD54C013968D919C911497039709F0D5
:103730004DC015968D919C91EF81F8858E179F074E
:1037400009F044C0B50190E080E07ED48A832091E6
:103750008D0330918E033D832C833D85332309F403
:103760004CC04C815D81452B09F49AC180918F0337
:1037700090919003A816B90608F092C1C501D0D85F
:103780008823E9F06C817D816E0D7F1D7D836C83C4
:10379000DB011F968D919C91892B89F0D12CC12C36
:1037A000F12CE12CAC81BD8112968C9112978E1573
:1037B0001F0409F094F450961C921E921F972A81C0
:1037C000222321F0B50190E080E040D43FEFA31A1E
:1037D000B30A43E1240E311C6DCFAC81BD81ED9164
:1037E000FC91EC0DFD1D8581968108D7BFEFEB1A8A
:1037F000FB0AEDE0CE0ED11CD5CFEC81FD813097D8
:1038000009F44EC180918F0390919003A816B906D8
:1038100008F046C1EE0DFF1DFF87EE87C50180D879
:103820008B83882339F1AE85BF851F968D919C913E
:103830005097019621E01D964D915C918417950754
:1038400009F020E02E831982712C10E000E0AE8593
:10385000BF8512968C91781608F45DC0EE85FF85C1
:10386000878590890196658576850E94D931908BF0
:103870008787A5CFB1E0BE83E6CF992493946BC030
:1038800084D6F6019683858382C0D601ED90FC90A4
:10389000B7E06B9EE00CF11C1124F7016381748189
:1038A00080818F3F61F121E030E002C0220F331FA1
:1038B0008A95E2F7C901092E000CAA0BBB0BFB018C
:1038C000408151816281738184239523A623B7238C
:1038D00021E0892B8A2B8B2B09F420E0D4012C9337
:1038E000D70111968C91F60123853485820F932F91
:1038F000911D880E991E1486138663949BC0418186
:1039000050E0C4010E942E32EBCF998206EF1FEFE8
:10391000C5C01982C3C0F981F111A0CFEDE07E9E30
:1039200070011124AE85BF85CD90DC90CE0CDF1CDC
:1039300013D49D838C83BB81BB2309F49ECF81E08C
:10394000EE85FF8527853089232B09F080E0982EAE
:10395000882309F458C0672D8E859F8505D8D60128
:1039600018969C938E93179761E070E0BED4EE8515
:10397000FF85218932892F3F320709F481CFBC01AD
:10398000C901C8D7D60116969C938E931597D60178
:1039900015968D919C911697009709F4B6CFEC81FE
:1039A000FD818E0F9F1F1A969C938E931997AE855B
:1039B000BF85ED91FC911197EE0EFF1EF701218559
:1039C0003285148613861A968C91870DD9018D93B2
:1039D000711016C0EE85FF85878184FF11C049856F
:1039E0005A856B857C85F901418352836383748397
:1039F000F701838594850496A80FB91F1486138652
:103A0000F701B287A187D60115968D919C911697E3
:103A1000892B09F443C0EE85FF852581368180918D
:103A20001F01909120012817390779F019968D9080
:103A30009C90612CD60112968C911297681608F40E
:103A400024CF1A969C928E921997BE81BB2309F4BB
:103A500060CF61E070E0F6018781908546D4D601A1
:103A60001796ED90FC90189715964D915C91E1E0BA
:103A7000F0E0BA81BB2311F0F0E0E0E00C811D81A1
:103A80009C01B501882799278E1B9F0B68D38C0159
:103A9000892B21F0F60185819681B0D57394D7CE1C
:103AA0000FEF1FEF8CCE10E000E00ECE2F923F9272
:103AB0004F925F926F927F928F929F92AF92BF923E
:103AC000CF92DF92EF92FF920F931F93CF93DF93EA
:103AD00080918D0390918E0310E000E0892BA9F076
:103AE000C7DA0AEF1FEF882381F020908F03309010
:103AF0009003C0918D03D0918E03D12CC12C10E086
:103B000000E02C143D04A9F47894C801DF91CF9112
:103B10001F910F91FF90EF90DF90CF90BF90AF90EB
:103B20009F908F907F906F905F904F903F902F90DD
:103B30000895C6010E949014882309F18B819C810D
:103B40000397E9F48F859889892BC9F0B60190E035
:103B500080E07AD221E030E0882311F030E020E0EC
:103B600044245524421A530AB12CA12C912C812CA7
:103B70008A818815190409F038F4188A1F864FEFD6
:103B8000C41AD40A6396BDCFE881F981EA0DFB1D02
:103B900085819681892BA1F161E070E08781908514
:103BA000A4D33C01D9D28C01E881F981EA0DFB1D37
:103BB0008185928525813681200F311FAC01421B02
:103BC000530B9A0147815085421B530B70E060E014
:103BD0000E943732E881F981EA0DFB1DE780F0840D
:103BE000458156819301B601C201B9D28C01892B5E
:103BF00039F0E881F981EA0DFB1D85819681FED4BB
:103C00005FEF851A950A8DE0A80EB11CB1CF30CABE
:103C1000789408952F923F924F925F926F927F9285
:103C20009F92AF92BF92CF92DF92EF92FF920F934B
:103C30001F93CF93DF9300D000D000D0CDB7DEB775
:103C400000918D0310918E03992493940115110511
:103C500009F43EC0A0908F03B090900309DA982E2B
:103C60008823B1F110928E0310928D03109290036D
:103C700010928F0310929103109292038FEF9FEF97
:103C8000DC018093290190932A01A0932B01B0932A
:103C90002C0178947AD31E830D83C12CD12C76010C
:103CA000C501B0E0A0E089839A83AB83BC83222462
:103CB0002A94322C89819A81AB81BC81C816D9069D
:103CC000EA06FB06F4F0C80199D480E40E94CF1004
:103CD000892D26960FB6F894DEBF0FBECDBFDF91BB
:103CE000CF911F910F91FF90EF90DF90CF90BF90F9
:103CF000AF909F907F906F905F904F903F902F90EC
:103D00000895AD81BE8115968D919C911697209155
:103D10001F013091200182179307D1F451968D91A4
:103D20009C91E6D5ED81FE8180819181B12CA12C01
:103D3000412C512C3201892B89F5BFEFCB1ADB0ABC
:103D4000EB0AFB0AED81FE817396FE83ED83B2CF11
:103D5000C114D104E104F10429F7029718F7ED81A9
:103D6000FE81818992898F3F980709F021D5AD8125
:103D7000BE8152963C922E925197D4CF8A0D9B1DB4
:103D8000DC018D919C91009709F038D4BFEF4B1A5C
:103D90005B0A6B0A7B0AEDE0AE0EB11CAD81BE8101
:103DA0008D919C91119712964C9150E070E060E0DB
:103DB00044165506660677060CF320D4BECFCF9383
:103DC000DF93EA0127DF811109C082E090E0998347
:103DD000888385EF9FEFDF91CF91089581E090E098
:103DE0000E94C11081E090E09983888390E080E098
:103DF000F2CF10DF10928A0310928903089542E0F7
:103E000050E060EC71E00C94DF10FF920F931F9371
:103E1000CF93DF938A01EC01C60FD71FF980B4D28C
:103E20000897F816190671F068F082E090E0F80142
:103E3000918380838EEF9FEFDF91CF911F910F9140
:103E4000FF9008956C817D818E819F814B810E94BE
:103E50007613811108C082E090E0F801918380839D
:103E600084EF9FEFE9CFF9800E9471134F2D50E04E
:103E7000BE01685F7F4F0E942E3289810E94E0134D
:103E800081E090E0F8019183808390E080E0D4CFDE
:103E9000DF92EF92FF920F931F93CF93DF938A01EC
:103EA000EC01C60FD71F0E9471137C01D9806CD220
:103EB000DD2059F0029721E030E0D816190619F0FC
:103EC00010F030E020E0232B79F482E090E0F8015C
:103ED000918380838EEF9FEFDF91CF911F910F91A0
:103EE000FF90EF90DF900895EF2841F482E090E09A
:103EF000F8019183808384EF9FEFEECFF9800E94D9
:103F000071134F2D50E0BE016E5F7F4F0E942E3225
:103F100089810E94E01381E090E0F8019183808321
:103F200090E080E0D9CF8FEF9EE19093940380934F
:103F300093030895809193039091940308950895B5
:103F4000FC0111821082938382830895DB011D920C
:103F50001C92DC011296ED91FC91139771836083A2
:103F600013967C936E9312970895FC018081918142
:103F7000DB018D939C93A081B181109741F08D91CD
:103F80009C9191838083892B11F4F383E2830895BC
:103F9000FC0180819181DB018D939C93892B11F42D
:103FA00073836283718360830895FC0111821082A0
:103FB000938382830895CF93DF9300D0CDB7DEB78C
:103FC0001A821982F894BE016F5F7F4F8AE993E0ED
:103FD000CCDF89819A81009709F010D389819A8179
:103FE000892B89F7BE016F5F7F4F8EE993E0BDDFBC
:103FF00089819A81009709F001D389819A81892B5F
:1040000089F778940F900F90DF91CF910895CF9317
:10401000DF9300D0CDB7DEB71A821982F894BE01C3
:104020006F5F7F4F86E993E0A0DF89819A810097D7
:1040300009F0E4D289819A81892B89F778940F90CD
:104040000F90DF91CF91089581E0089590E080E096
:104050000895EF92FF920F931F93CF93DF9300D0B9
:10406000CDB7DEB71A8219828091950307EF1FEF53
:104070008823A1F1F894BE016F5F7F4F8EE993E032
:1040800074DF789489819A81EE24E394F12C892B52
:1040900051F4F894BE016F5F7F4F8AE993E065DFCA
:1040A0007894F12CE12C89819A810EEF1FEF009713
:1040B000A9F0FC014281538164E070E06CD68C0170
:1040C000892B61F0F89469817A81C701880F991F63
:1040D000880F991F86569C4F5BDF7894C8010F901C
:1040E0000F90DF91CF911F910F91FF90EF90089566
:1040F0000F931F93CF93DF9300D000D0CDB7DEB7DF
:104100001C821B821A8219828091950307EF1FEF90
:104110008823C1F0AE014D5F5F4F64E070E0CE01D7
:104120000196ACD68C01892B69F4E981FA818B81E7
:104130009C8193838283F89469817A8186E993E0F4
:1041400005DF7894C8010F900F900F900F90DF91CA
:10415000CF911F910F910895B1D7049608958F9232
:104160009F92AF92BF92CF92DF92EF92FF920F9306
:104170001F93CF93DF9300D0CDB7DEB71A82198299
:10418000BC016F5F7F4F6330710598F0AA24AA9439
:10419000BA2CC5010F900F90DF91CF911F910F9115
:1041A000FF90EF90DF90CF90BF90AF909F908F9057
:1041B00008954115510551F3480159018A016C01D7
:1041C000CBDF8815990511F7E114F104F9F28E0D92
:1041D0009F1DA816B906D0F2809195038823F1F0AF
:1041E000F894B501645071099701AE014F5F5F4FBC
:1041F000C8010496D8D65C01892B71F489819A8113
:10420000F80193838283C601880F991F880F991F35
:10421000B80186569C4F9ADE7894BBCF87EFA82EC4
:10422000BB24BA94B6CFAF92BF92CF92DF92EF92F7
:10423000FF920F931F93CF93DF9300D0CDB7DEB7DC
:104240001A821982892B09F047C06115710509F49A
:1042500043C04115510509F43FC02115310509F44A
:104260003BC001151105C1F1809195038823B9F177
:1042700079016A015B01F894BE016F5F7F4F86E9A7
:1042800093E073DE789489819A81009759F1DC017B
:1042900012966D917C91A80104969ED68C01E981BD
:1042A000FA81D501ED93FC93828193810496F60106
:1042B0009183808351DFD7018D939C93C8010F9028
:1042C0000F90DF91CF911F910F91FF90EF90DF90B2
:1042D000CF90BF90AF9008950FEF1FEFEFCF07EF94
:1042E0001FEFECCF0EEF1FEFE9CFCF93DF93EC0181
:1042F000672B71F4ECD68C179D0760F0DFD62496FF
:10430000C80FD91FDED68C0F9D1FDF91CF91089566
:10431000DBD6F1CF90E080E0F8CF0F931F93CF93DF
:10432000DF932091950321112BC08B01EC018AE9C9
:1043300093E006DE8EE993E003DE86E993E000DE9B
:1043400097D00097C1F4C3D670E060E0CEDF4DE2B5
:1043500051E062E070E07ED1009769F480912D0118
:1043600090912E01C6D6B801CE01FBD4009719F466
:1043700021E020939503DF91CF911F910F91089534
:1043800084EF9FEFF8CFA0C6A2C6CF93DF93A2D64B
:10439000EC01892B11F40FDE3ADECE01DF91CF91D3
:1043A0000895CF93DF9396D6EC01892B09F403DEB1
:1043B000CE01DF91CF91089580912D0190912E0132
:1043C0000895CF93DF9380919503D0E0C0E08823D8
:1043D000D1F094D6EC01892BB1F4EDDD18DE80919B
:1043E0002D0190912E01E4D1E5D2EC01892B59F4F5
:1043F0008AE993E0DADD8EE993E0D7DD86E993E0A0
:10440000D4DD10929503CE01DF91CF910895EF9204
:10441000FF920F931F93CF93DF93EC017A018B01EF
:104420000F5F1F4F0E9DA0010F9D500D1E9D500D43
:10443000112470E060E00E94373290E080E0F0E00C
:10444000E0E02FEFE816F90639F4DF91CF911F91E4
:104450000F91FF90EF9008951A8219822883309768
:1044600011F0D283C1830196FE01C00FD11FEACFA4
:10447000CF92DF92EF92FF920F931F93CF93DF9330
:104480000EE914E00C7F43E050E06FE271E085E359
:1044900091E014D48FE2E82E81E0F82E95E3C92E46
:1044A00091E0D92EC5E1D5E0D7014D915D917D0117
:1044B000F601619171916F01198308835D834C83CB
:1044C0005B834A837F836E839B012F5F3F4F249FD3
:1044D000C001259F900D349F900D112499878887E6
:1044E0000115110511F0C80192DF88859985080F23
:1044F000191F2A96F5E3EF16F1E0FF06A9F6E4EAA4
:10450000F3E087EFDF011D928A95E9F71092A3038C
:104510001092A203109234051092330510923805C0
:1045200010923705109236051092350510923A0513
:104530001092390510923C0510923B0510923E05F1
:1045400010923D05109242051092410510924005CF
:1045500010923F05109244051092430510924605B3
:104560001092450510921205109211051092140533
:104570001092130590E080E0DF91CF911F910F9191
:10458000FF90EF90DF90CF9008950097F1F0F894AE
:10459000A5E3B1E0E5E1F5E030E020E04D915D918B
:1045A00048175907A8F0428153814115510581F000
:1045B0008AE0829FF001839FF00D1124EB5EFA4F99
:1045C00080819181009759F4789490E080E008957B
:1045D0002F5F3F4F3A962330310501F7F5CFDC01CD
:1045E00011966D917C917183608341505109538381
:1045F0004283FC012193CF0178940895009749F1FB
:10460000DC018E91853041F4E0911305F0911405A1
:104610003097F9F0CD0109948530D8F4282F30E097
:10462000F8948FEF8C938AE0829FF001839FF00DC6
:104630001124EB5EFA4F8081918112969C938E93A8
:104640001197B183A08382819381019693838283A2
:1046500078940895CF92DF92EF92FF920F931F9379
:10466000CF93DF939C0187EA93E08C7F411551053E
:1046700009F49BC02115310509F497C06115710536
:1046800009F493C07A01AB01B9016D5F7F4F6C7F74
:104690009B012F5F3F4F249F8001259F100D349F6A
:1046A000100D1124F8942091330530913405232BFB
:1046B00059F420913B0530913C052115310569F1F4
:1046C0002017310708F058C020913D0530913E0574
:1046D000232B91F420913B0530913C05820F931FD1
:1046E00020914505309146052115310509F441C059
:1046F0002017310708F056C07894CFEFDFEF86EF30
:104700009FEFF701D183C083DF91CF911F910F916C
:10471000FF90EF90DF90CF900895C3E0D0E0C0907D
:10472000A203D090A30324EF30E02C193D092017F9
:10473000310710F32AE02C9FF0012D9FF00D11247A
:10474000EB5EFA4F91838083558344835383428386
:104750007783668311870087009709F058DE0C0D78
:104760001D1D1093A3030093A203789490E080E0B2
:10477000C8CFC4E0D0E0D3CFC3E0D0E02AE02C9F84
:10478000F0012D9FF00D1124EB5EFA4F9183808391
:10479000558344835383428377836683009729F349
:1047A00036DEE3CFC4E0D0E0E9CF8FEF9FEFACCFB0
:1047B0009C010397029708F069C0F89484E09AE09E
:1047C000482F50E0241735070CF44DC091E08AE0E3
:1047D000829FF001839FF00D1124EB5EFA4F11824E
:1047E00010821582148213821282178216829923F4
:1047F000B1F18091330590913405892BA9F4209172
:104800003B0530913C052115310571F08091A203E3
:104810009091A303821B930B9093A3038093A20315
:1048200010923C0510923B0580913D0590913E050C
:10483000892BA9F4209145053091460521153105B4
:1048400071F08091A2039091A303821B930B90932C
:10485000A3038093A2031092460510924505789415
:1048600090E080E00895949FF001959FF00D112451
:10487000EB5EFA4F40815181452B31F440855185E3
:10488000452B11F481509CCF90E0A1CF8FEF9FEF8B
:1048900008954115510549F1009739F161157105E8
:1048A00021F1F8942091110530911205232BB9F4D0
:1048B0002091130530911405232B89F49093120550
:1048C000809311057093140560931305789425E087
:1048D00030E090E080E0FA013183208308957894FD
:1048E0002FEF3FEF86EF9FEFF6CF8FEF9FEF08950B
:1048F000059769F4F8941092120510921105109220
:10490000140510921305789490E080E008958FEFDD
:104910009FEF08956115710519F4F0E0E0E011C012
:104920008530910581F4E0911105F09112053097E1
:10493000A1F3CB0101960995009779F3FC0185E07D
:104940008193CF0108959C01235031092230310514
:1049500020F72AE0289FD001299FB00D1124AB5EDB
:10496000BA4F2D913C911197232BB9F216962D91A8
:104970003C9117972617370780F2F89412962D91DD
:104980003C9113972115310529F0ED91FC91119778
:10499000309711F47894C1CF4181528111965C9384
:1049A0004E932150310913963C932E931297819385
:1049B0007894C7CFEBE9F4E086E7DF011D928A9592
:1049C000E9F7E4EAF3E087EFDF011D928A95E9F762
:1049D0001092A3031092A203E5E1F5E082E3DF0168
:1049E0001D928A95E9F7E1E1F5E084E0DF011D928F
:1049F0008A95E9F790E080E00895CF93DF93C09126
:104A00003B01D0913C01CF3FDC0759F444D4909353
:104A10003C0180933B0197FF09C0D0933C01C093B8
:104A20003B0184EF9FEFDF91CF91089590E080E00C
:104A3000FACF8230910528F48093470590E080E01A
:104A400008958FEF9FEF08954F925F926F927F923C
:104A5000AF92BF92CF92DF92EF92FF920F931F938C
:104A6000CF93DF9300D0CDB7DEB71A8219820097BB
:104A700009F479C06115710509F475C020913B01F5
:104A800030913C0107EF1FEF2F3F3F4F09F445C026
:104A90006B015C01412C512C3201F12CE12C10E016
:104AA00000E09E012F5F3F4FA6014E195F09B5013F
:104AB0006E0D7F1D80913B0190913C014BD4892B61
:104AC00009F04BC089819A81009741F4E114F10407
:104AD00029F420914705222309F442C0E80EF91E6B
:104AE000EC14FD04D0F480E8481684E858068EE102
:104AF0006806710420F560E070E0CB010E94DF2EB3
:104B00002AE0420E511C611C711C0A3F4FEF140732
:104B100021F0043F8FEF1807A1F4C8010F900F9008
:104B2000DF91CF911F910F91FF90EF90DF90CF9089
:104B3000BF90AF907F906F905F904F90089501EF7E
:104B40001FEF81E090E0013F2FEF120711F090E09E
:104B500080E0892B09F4A5CFE0CF04EF1FEFDDCF74
:104B60000AEF1FEFDACF0FEF1FEFD7CF4F925F9211
:104B70006F927F92AF92BF92CF92DF92EF92FF92AD
:104B80000F931F93CF93DF9300D0CDB7DEB71A8278
:104B90001982009709F479C06115710509F475C08F
:104BA00020913B0130913C0107EF1FEF2F3F3F4F1A
:104BB00009F445C06B015C01412C512C3201F12CF0
:104BC000E12C10E000E09E012F5F3F4FA6014E193F
:104BD0005F09B5016E0D7F1D80913B0190913C01F5
:104BE0006FD3892B09F04BC089819A81009741F4DA
:104BF000E114F10429F420914705222309F442C06D
:104C0000E80EF91EEC14FD04D0F480E4481682E4AA
:104C100058068FE06806710420F560E070E0CB0173
:104C20000E94DF2E2AE0420E511C611C711C0E3FB7
:104C30004FEF140721F0043F8FEF1807A1F4C801CC
:104C40000F900F90DF91CF911F910F91FF90EF90F8
:104C5000DF90CF90BF90AF907F906F905F904F901C
:104C6000089502EF1FEF81E090E0023F2FEF12075F
:104C700011F090E080E0892B09F4A5CFE0CF04EF9C
:104C80001FEFDDCF0EEF1FEFDACF0FEF1FEFD7CF04
:104C900080913B0190913C018F3F980749F0F3D2FE
:104CA000892B49F48FEF9FEF90933C0180933B0158
:104CB00090E080E0089584EF9FEF0895CF92DF9217
:104CC000EF92FF920F931F93CF93DF9321E0411553
:104CD000510509F020E04150510921112CC0DC019F
:104CE000FB01D12CC12C21E022C03FEFC31AD30A13
:104CF0007D010D911D91E701EA80FB80E016F10630
:104D0000A8F420813181E280F380F182E082338354
:104D10002283ED90FC9011979D0122503109E90109
:104D2000F982E88211961C930E9320E03296C41605
:104D3000D506D8F2D2CFDF91CF911F910F91FF907E
:104D4000EF90DF90CF900895FC01680F791F90E0FD
:104D500080E0E617F70709F408952191820F911D6D
:104D6000F8CF20914805211113C047DE009791F438
:104D700010924E0510924D0510924C0510924B0565
:104D800010924A051092490521E0209348050895A4
:104D900084EF9FEF0895AF92BF92CF92DF92EF9290
:104DA000FF920F931F93CF93DF93009709F460C096
:104DB0004630510508F45CC020914805C7EFDFEF8D
:104DC000222309F449C08C01060F171FF801C08087
:104DD000D180C114D10409F44EC096012A5F3F4F1F
:104DE0004217530708F447C07C0180914D0590910C
:104DF0004E0593838283B6016C5F7F4F5801A60EE8
:104E0000B71EC801A1DFF5019183808364E070E0E3
:104E1000C8011ADEEC01892BF9F481E090E009DE8B
:104E2000B601C801049610DEEC01892B91F462E012
:104E300070E0C50109DEEC01892B59F4C701DEDB06
:104E400080914D0590914E05019690934E0580936B
:104E50004D0590E080E0EDDDCE01DF91CF911F9117
:104E60000F91FF90EF90DF90CF90BF90AF9008959B
:104E7000CFEFDFEFF1CFC9EFDFEFEECF6F927F9291
:104E80008F929F92AF92BF92CF92DF92EF92FF925A
:104E90000F931F93CF93DF9300D000D0CDB7DEB731
:104EA000009709F47AC04115510509F476C02091A4
:104EB000480507EF1FEF222309F44DC03A017B019B
:104EC0005C0164E070E0CE01019650DE8C01892B1C
:104ED00009F041C009811A810115110509F45AC070
:104EE000480186E0880E911CB701680D791D8091FC
:104EF0003D0190913E010EDD6C01009709F450C018
:104F0000A70170E060E00E94373289819A81AB810D
:104F1000BC81EC0CFD1CF70181939193A193B1939B
:104F20007F0181E090E085DDB801C7011FDE892B9C
:104F300031F562E070E0C701800F911F17DE8C0130
:104F4000892BE9F490E080E074DDF501D182C08224
:104F5000F30191828082C8010F900F900F900F9003
:104F6000DF91CF911F910F91FF90EF90DF90CF9045
:104F7000BF90AF909F908F907F906F90089590E03A
:104F800080E057DDF50111821082F3011182108259
:104F9000C60134DB09EF1FEFDECF0FEF1FEFDBCFD2
:104FA00006EF1FEFD8CF0097A1F04115510589F00A
:104FB0002115310571F0F90136966E177F0748F01B
:104FC000DC012D933C93DA01ED93FC9390E080E0BB
:104FD00008958FEF9FEF0895AF92BF92CF92DF9227
:104FE000EF92FF920F931F93CF93DF93009709F4F3
:104FF0005FC04115510509F45BC06530710508F4C7
:1050000057C020914805C7EFDFEF222391F1DC0163
:10501000CD90DC9011971296ED91FC9196012A5F4C
:105020003F4FC9EFDFEF2617370719F5C091490544
:10503000D0914A05209749F521E030E030934A05A8
:10504000209349057A018C01F0934C05E0934B05C0
:105050005601B4E0AB0EB11CB50176DE0A0D1B1D86
:10506000F801208131818217930729F5D701CD926C
:10507000DC92CE01DF91CF911F910F91FF90EF90C5
:10508000DF90CF90BF90AF90089520914B05309165
:105090004C052F5F3F4FCCEFDFEFE217F30790F2A5
:1050A000CBEFDFEF2E173F0768F2D0E0C0E0CACFAA
:1050B000CFEFDFEFDECFC3EFDFEFDBCF84E090E0B9
:1050C000089582E090E008958CEF9FEF089580E2CC
:1050D00090E0089510924E0510924D0510924C05E7
:1050E00010924B0510924A051092490590E080E01D
:1050F000089590933E0180933D0108958091480565
:10510000882391F0C5DD009789F410924E05109226
:105110004D0510924C0510924B0510924A051092C5
:10512000490510924805089590E080E008950097A1
:1051300049F06115710531F0FC0111821082FB010B
:10514000118210820895F3CF089526E030E040E800
:1051500055E260E070E090E080E000C01092500501
:1051600010924F0589309105E8F48654974DFC0163
:105170000C940F32C328CC28D328D628D928DC2871
:10518000DF28E228E82881E090E0909350058093A2
:105190004F058EE595E0FBC782E090E090935005C7
:1051A00080934F05089584E090E0F8CF88E090E088
:1051B000F5CF80E190E0F2CF80E290E0EFCF80E4A5
:1051C00090E0ECCF80E890E09093500580934F05FD
:1051D00080914F05909150059160E0CF1F920F9202
:1051E0000FB60F9211242F933F934F935F936F93BA
:1051F0007F938F939F93AF93BF93EF93FF938FE82A
:105200009DEF9093850080938400B7D0FF91EF913C
:10521000BF91AF919F918F917F916F915F914F91CE
:105220003F912F910F900FBE0F901F9018958FE810
:105230009DEF9093850080938400AFE6B0E08C9161
:105240008E7F8C93E0E8F0E080818C7F8083E1E8C2
:10525000F0E08081877E808380818460808380818C
:105260008C7F80838C9181608C930895EFE6F0E0D1
:10527000808190819E7F90838170089581E0089560
:1052800010925105089568EE73E080E090E097D5A4
:1052900090E080E0089526E030E040E052EC61E0EC
:1052A00070E090E080E05ADF8EE595E0A6D6892B8D
:1052B00021F08EE595E0BBD6F7CF90E080E0089531
:1052C000CF92DF92EF92FF920F931F93CF93DF93D2
:1052D0006B017A01E901198218828EE595E08DD67D
:1052E000892B69F18601CC24C39482E0D82E809169
:1052F0005105811110C08EE595E099D60297B9F756
:10530000C0925105F801D1928F018881998101964F
:1053100099838883ECCF888199818E159F0578F4D5
:105320008EE595E084D68F3F9807A9F3F801819325
:105330008F0188819981019699838883ECCF90E0D1
:1053400080E0DF91CF911F910F91FF90EF90DF9060
:10535000CF9008950F931F93CF93DF93EA018901B4
:105360008EE595E0F8D7F801D183C08390E080E026
:10537000DF91CF911F910F9108958091520591E097
:10538000980F90935205882349F021E030E0309344
:1053900054052093530580935205089578940E94F4
:1053A0000A04F894809152058150F5CF0F931F9312
:1053B000CF93DF9310927F0610927E0636D5C5DE1E
:1053C000C0914601D0914701198218826FEF7FEF9B
:1053D000CB010E94DF0270E060E090E080E00E947C
:1053E0005901009709F042C00E942B08F894789464
:1053F0008A819B81BC01685F7F4F0E945C01892B81
:1054000071F46FEF7FEFCB010E94EE010E94D90291
:10541000882329F081E0FE01EC50FF4F8083F8944F
:1054200006DF0E94DC02882311F080E00BC00E949E
:10543000D9028111FACF81E0FE01EC50FF4F90813B
:105440009111F3CF80937E0678940E94BC108C015A
:105450007894CC50DF4F80917E0681110CC00E9461
:10546000B5090E94BD02F89490E080E0DF91CF91F1
:105470001F910F9108950E94BA020E94DC028823B6
:10548000E1F081E080937F0690917F0681E09111A9
:1054900080E080937E0680917F068111E7DE0130F7
:1054A000110529F40E94BC10892B09F4E9DE0E9441
:1054B000BC108C01E3DE48DECECF0E94D902811100
:1054C000E0CF81E098819111DDCF80E0DBCF5058B3
:1054D000BB27AA270ED0ACC19DD130F0A2D120F0BD
:1054E00031F49F3F11F41EF492C10EF4E095E7FBF6
:1054F0005FC1E92FAED180F3BA1762077307840743
:10550000950718F071F49EF5DDC10EF4E0950B2EB1
:10551000BA2FA02D0B01B90190010C01CA01A00105
:105520001124FF27591B99F0593F50F4503E68F160
:105530001A16F040A22F232F342F4427585FF3CFA1
:10554000469537952795A795F0405395C9F77EF472
:105550001F16BA0B620B730B840BBAF09150A1F0BB
:10556000FF0FBB1F661F771F881FC2F70EC0BA0F41
:10557000621F731F841F48F4879577956795B795C9
:10558000F7959E3F08F0B3CF9395880F08F09927C1
:10559000EE0F979587950895E7D008F481E0089578
:1055A0000CD046C13ED140F035D130F021F45F3F00
:1055B00019F0FEC0511187C12AC14BD198F399232C
:1055C000C9F35523B1F3951B550BBB27AA276217C7
:1055D0007307840738F09F5F5F4F220F331F441F0C
:1055E000AA1FA9F333D00E2E3AF0E0E830D0915044
:1055F0005040E695001CCAF729D0FE2F27D0660F31
:10560000771F881FBB1F261737074807AB07B0E86F
:1056100009F0BB0B802DBF01FF2793585F4F2AF085
:105620009E3F510568F0C4C04EC15F3FECF3983E09
:10563000DCF3869577956795B795F7959F5FC9F7E2
:10564000880F911D9695879597F90895E1E0660F6B
:10565000771F881FBB1F621773078407BA0720F0E4
:10566000621B730B840BBA0BEE1F88F7E09508954D
:10567000F8D088F09F5790F0B92F9927B751A0F034
:10568000D1F0660F771F881F991F1AF0BA95C9F7D6
:1056900012C0B13081F016D1B1E0089513C1672F67
:1056A000782F8827B85F39F0B93FCCF38695779586
:1056B0006795B395D9F73EF490958095709561956F
:1056C0007F4F8F4F9F4F0895E89409C097FB3EF49A
:1056D00090958095709561957F4F8F4F9F4F99233F
:1056E000A9F0F92F96E9BB279395F69587957795BD
:1056F0006795B795F111F8CFFAF4BB0F11F460FF7D
:105700001BC06F5F7F4F8F4F9F4F16C0882311F0D4
:1057100096E911C0772321F09EE8872F762F05C0E8
:10572000662371F096E8862F70E060E02AF09A9583
:10573000660F771F881FDAF7880F9695879597F978
:105740000895A9D080F09F3740F491110EF0BBC0AE
:1057500060E070E080E89FEB089526F41B16611D61
:10576000711D811D2BC045C0990F0008550FAA0B54
:10577000E0E8FEEF16161706E807F907C0F0121664
:105780001306E407F50798F0621B730B840B950B67
:1057900039F40A2661F0232B242B252B21F40895BC
:1057A0000A2609F4A140A6958FEF811D811D089559
:1057B00097F99F6780E870E060E00895882371F4AE
:1057C000772321F09850872B762F07C0662311F49A
:1057D00099270DC09051862B70E060E02AF09A95D1
:1057E000660F771F881FDAF7880F9695879597F9C8
:1057F00008959F3F31F0915020F4879577956795F4
:10580000B795880F911D9695879597F908959FEF05
:1058100080EC089500240A94161617061806090647
:10582000089500240A941216130614060506089516
:10583000092E0394000C11F4882352F0BB0F40F49E
:10584000BF2B11F460FF04C06F5F7F4F8F4F9F4FDE
:10585000089557FD9058440F551F59F05F3F71F060
:105860004795880F97FB991F61F09F3F79F08795C7
:105870000895121613061406551FF2CF4695F1DF50
:1058800008C0161617061806991FF1CF86957105E0
:10589000610508940895E5DFA0F0BEE7B91788F424
:1058A000BB279F3860F41616B11D672F782F882705
:1058B000985FF7CF869577956795B11D9395963943
:1058C000C8F30895E894BB2766277727CB0197F99B
:1058D00008954ADF08F48FEF08950BD0A9CF9ADF1F
:1058E00028F09FDF18F0952309F062CF90CF1124A4
:1058F000EACFAFDFA0F3959FD1F3950F50E0551F8E
:10590000629FF001729FBB27F00DB11D639FAA2714
:10591000F00DB11DAA1F649F6627B00DA11D661F63
:10592000829F2227B00DA11D621F739FB00DA11D84
:10593000621F839FA00D611D221F749F3327A00D3E
:10594000611D231F849F600D211D822F762F6A2FDA
:1059500011249F5750408AF0E1F088234AF0EE0F5F
:10596000FF1FBB1F661F771F881F91505040A9F76C
:105970009E3F510570F01CCFA6CF5F3FECF3983EE1
:10598000DCF3869577956795B795F795E7959F5FD3
:10599000C1F7FE2B880F911D9695879597F908956D
:1059A000FA01EE0FFF1F30962105310599F16115BF
:1059B000710561F48038BFE39B0749F16894903822
:1059C000810561F08038BFEF9B0741F0992342F5D4
:1059D000FF3FE1053105210511F1E8940894E795B1
:1059E000D901AA2329F4AB2FBE2FF85FD0F310C042
:1059F000FF5F70F4A695E0F7F73950F019F0FF3A21
:105A000038F49F779F930CD00F9007FC905808951F
:105A10003EF0FDCE60E070E080E89FE308954FE740
:105A20009F775F934F933F932F93E7D02F913F91B1
:105A30004F915F9152DF47C011F40EF4E8CED9CEFA
:105A400010DFD0F39923D9F3CEF39F57550B87FF7F
:105A500066D00024A0E640EA9001805856959795BC
:105A600028F4805C660F771F881F20F02617370701
:105A7000480730F4621B730B840B202931294A2B11
:105A8000A69517940794202531254A2758F7660FC5
:105A9000771F881F20F026173707480730F4620B5E
:105AA000730B840B200D311D411DA09581F7B901A9
:105AB000842F9158880F96958795089519F40EF0C4
:105AC00077CE00CFA4CECDDEC8F39638C0F707F866
:105AD0000F92E8942BE33AEA48EB5FE70CDF0F9272
